S00A00004C61622E61627382
S123E00045014094CDFDAE140016001001120114011601100312031403160318031A031C44
S123E020031E03A610C70062A600C70061C70063C70060C70066CDF16A18021B021D021FF0
S123E04002CDF283CDF28DCDF7BB19021B021D021E02CDF283CDF28DCDF7BB19021A021DD5
S123E060021F02CDF283CDF28DCDF7BB19021B021C021F02CDF283CDF28DCDF7BB19021BB2
S123E080021D021F02CDF283CDF28DCDE138C71800A60AC70066CDF732CDE498CDE789CDC1
S123E0A0E6E0CDE16FCDE319CDE270CDE5EACDE185CDE541CDE1C7CDE3EFCDE19BCDE6932C
S123E0C0CDE832CDE3D9CDE1B1CDF7BBC60066A001C70066270220BECDF710C60061410CA5
S123E0E0022009CDEABBCDE0EECDE11620A0CDE8DBCDF85DCDF81CCDFC88CDF8E8CDFC52B4
S123E100CDF9EACDFB7BCDFC52CDFAAFCDF878CDFCF4CDF23E81CDFC6DCDF9EACDFA0CCD79
S123E120F8E8CDFC52CDF9EACDFB7BCDFC52CDF98ACDFA27CDFB9681CDE8DBCDFCD9CDF9BD
S123E1406FCDF81CCDFC88CDFB60CDFB7BCDFC52CDFC88CDF96FCDF8E8CDFC52CDFC88CD28
S123E160F9EACDFA0CCDF8E8CDFB45CDF23E81C60062410301811E021D021A021902CDF28A
S123E18083CDE3C281C60062410701811E021D021A021802CDF283CDE3C281C60062410BF5
S123E1A001811E021C021B021902CDF283CDE3C281C60062410F01811E021C021B021802BF
S123E1C0CDF283CDE3C281C60062410901811E021D021B021902CDF283C60061410C2ACDEE
S123E1E0F903C6006141002541012941023041033441043B41053F41064341074741084E87
S123E200410952410A59410B5DCDE3C281A608C7006B20F5A608C7006CCDF93920EBA60890
S123E220C7006920E4A608C7006ACDF93920DAA608C7006720D3A608C7006820CCA608C7C1
S123E240006D20C5A608C7006ECDF84220BBA608C7006F20B4A608C70070CDF84220AAA68F
S123E26008C7007120A3A608C70072CDF2E12099C60062410501811F021C021B021802CD24
S123E280F283C60061410C2ACDF91EC6006141002541012941023041033441043B41053F9B
S123E2A041064341074741084E410952410A59410B5DCDE3C281A605C7006B20F5A605C76A
S123E2C0006CCDF93920EBA605C7006920E4A605C7006ACDF93920DAA605C7006720D3A69E
S123E2E005C7006820CCA605C7006D20C5A605C7006ECDF84220BBA605C7006F20B4A60514
S123E300C70070CDF84220AAA605C7007120A3A605C70072CDF2E12099C60062410401811F
S123E3201F021C021B021902CDF283C60061410C2ACDF954C60061410025410129410230FD
S123E34041033441043B41053F41064341074741084E410952410A59410B5DCDE3C281A60A
S123E36004C7006B20F5A604C7006CCDF93920EBA604C7006920E4A604C7006ACDF939208F
S123E380DAA604C7006720D3A604C7006820CCA604C7006D20C5A604C7006ECDF84220BB8B
S123E3A0A604C7006F20B4A604C70070CDF84220AAA604C7007120A3A604C70072CDF2E1CB
S123E3C02099A610C70062C60061AB01C70061CDF7BBCDF7BBCDF7BB81C60062410E0181AF
S123E3E01E021C021A021802CDF283CDE3C281C60062410A01811E021D021B021802CDF246
S123E40083C60061410C2ACDFB0FC6006141002541012941023041033441043B41053F41D7
S123E420064341074741084E410952410A59410B5DCDE3C281A609C7006B20F5A609C70021
S123E4406CCDF93920EBA609C7006920E4A609C7006ACDF93920DAA609C7006720D3A60907
S123E460C7006820CCA609C7006D20C5A609C7006ECDF84220BBA609C7006F20B4A609C7C0
S123E4800070CDF84220AAA609C7007120A3A609C70072CDF2E12099C60062410001811F42
S123E4A0021D021B021802CDF283C60061410C2ACDFB2AC600614100254101294102304182
S123E4C0033441043B41053F41064341074741084E410952410A59410B5DCDE3C281A601C9
S123E4E0C7006B20F5A601C7006CCDF93920EBA601C7006920E4A601C7006ACDF93920DA41
S123E500A601C7006720D3A601C7006820CCA601C7006D20C5A601C7006ECDF84220BBA649
S123E52001C7006F20B4A601C70070CDF84220AAA601C7007120A3A601C70072CDF2E120DB
S123E54099C60062410801811F021C021A021802CDF283C60061410C2ACDFC1CC600614189
S123E560002541012941023041033441043B41053F41064341074741084E410952410A5927
S123E580410B5DCDE3C281A607C7006B20F5A607C7006CCDF93920EBA607C7006920E4A676
S123E5A007C7006ACDF93920DAA607C7006720D3A607C7006820CCA607C7006D20C5A6071D
S123E5C0C7006ECDF84220BBA607C7006F20B4A607C70070CDF84220AAA607C7007120A30C
S123E5E0A607C70072CDF2E12099C60062410601811F021C021A021902CDF283C6006141C7
S123E6000C2ACDFC37C6006141002541012941023041033441043B41053F410643410747BF
S123E62041084E410952410A59410B5DCDE3C281A606C7006B20F5A606C7006CCDF9392072
S123E640EBA606C7006920E4A606C7006ACDF93920DAA606C7006720D3A606C7006820CC81
S123E660A606C7006D20C5A606C7006ECDF84220BBA606C7006F20B4A606C70070CDF8426E
S123E68020AAA606C7007120A3A606C70072CDF2E12099C60062410C01811E021C021A0276
S123E6A01902CDF283A600C70061C7006BC7006CC70069C7006AC70067C70068C7006DC70D
S123E6C0006EC7006FC70070C70071C70072CDE138A610C70062CDF7BBCDF7BBCDF7BB8127
S123E6E0C60062410201811F021D021A021802CDF283C60061410C2ACDFCA3C600614100FF
S123E7002541012941023041033441043B41053F41064341074741084E410952410A594144
S123E7200B5DCDE3C281A603C7006B20F5A603C7006CCDF93920EBA603C7006920E4A6031E
S123E740C7006ACDF93920DAA603C7006720D3A603C7006820CCA603C7006D20C5A603C7CB
S123E760006ECDF84220BBA603C7006F20B4A603C70070CDF84220AAA603C7007120A3A697
S123E78003C70072CDF2E12099C60062410101811F021D021A021902CDF283C60061410CC7
S123E7A02ACDFCBEC6006141002541012941023041033441043B41053F4106434107474162
S123E7C0084E410952410A59410B5DCDE3C281A602C7006B20F5A602C7006CCDF93920EB2F
S123E7E0A602C7006920E4A602C7006ACDF93920DAA602C7006720D3A602C7006820CCA635
S123E80002C7006D20C5A602C7006ECDF84220BBA602C7006F20B4A602C70070CDF8422062
S123E820AAA602C7007120A3A602C70072CDF2E12099C60062410D01811F021D021B0219DF
S123E84002CDF283C60061410C2ACDFD93C6006141002541012941023041033441043B41D1
S123E860053F41064341074741084E410952410A59410B5DCDE3C281A600C7006B20F5A631
S123E88000C7006CCDF93920EBA600C7006920E4A600C7006ACDF93920DAA600C700672099
S123E8A0D3A600C7006820CCA600C7006D20C5A600C7006ECDF84220BBA600C7006F20B494
S123E8C0A600C70070CDF84220AAA600C7007120A3A600C70072CDF2E12099130011001F6A
S123E8E0021D021B021902CDFA05CDF7D4130011001F021D021B021802CDFA05CDF7D481D7
S123E9001400CDF129CDF1291500CDF1291400CDF1291500CDF129CDF129CDF129811602B7
S123E9201702160281C6006041000841010F410216201E0B630181A601C70062810B63011A
S123E94081A605C70062810B630181A609C70062810B630181A60DC7006281C600604100E0
S123E9600841010F410216201E0F630181A603C70062810F630181A607C70062810F63019E
S123E98081A60BC70062810F630181A60FC7006281C6006041000841010F410216201E0DE0
S123E9A0630181A602C70062810D630181A606C70062810D630181A60AC70062810D630117
S123E9C081A60EC700628100C6006041000841010F410216201E09630181A600C7006281BF
S123E9E009630181A604C700628109630181A608C700628109630181A60CC700628114002D
S123EA00CDF1291500CDF1291500CDF1291500CDF129811500CDF1291400CDF1291500CDBD
S123EA20F1291400CDF129811500CDF1291400CDF1291500CDF1291500CDF129811400CDEB
S123EA40F1291500CDF1291500CDF1291400CDF129811500CDF1291400CDF1291400CDF15B
S123EA60291400CDF129811500CDF1291400CDF1291400CDF1291500CDF129811500CDF1AB
S123EA80291500CDF1291500CDF1291400CDF129811500CDF1291500CDF1291400CDF129E2
S123EAA01400CDF129811500CDF1291500CDF1291400CDF1291500CDF12981CDF13CCDE9B6
S123EAC0001500CDF129CDF837CDF268CDF837CDF13CCDE9001400CDF2591501CDEF00CD9C
S123EAE0F259CDECF8CDF259CDEC22CDF259CDF129CDF129CDF129CDF129CDF129CDF129A1
S123EB00CDF129CDF129CDF259CDEB26CDF259CDEE25CDF259CDF02D140115009D9D9DCD65
S123EB20F129CDF15D81170016001700160017009D9D9DB602160041011A17009D9D9DB605
S123EB40021600410107A600C70069201FA601C70069201817009D9D9DB602160041010727
S123EB60A602C700692005A603C7006917009D9D9DB602160041012B17009D9D9DB60216D6
S123EB800041015A17009D9D9DB602160041013417009D9D9DB6021600410121A600C70017
S123EBA06A207E17009D9D9DB6021600410107A608C7006A206BA609C7006A2064A601C708
S123EBC0006A205D17009D9D9DB6021600410107A602C7006A204AA603C7006A20431700AE
S123EBE09D9D9DB602160041011A17009D9D9DB6021600410107A604C7006A2024A605C77A
S123EC00006A201D17009D9D9DB602160041010CA606C7006AA605C7006A2005A607C700ED
S123EC206A8117001600170016001700160017009D9D9DB6021600410107A600C7006D205F
S123EC4007A601C7006D200017009D9D9DB602160041012A17009D9D9DB602160041015C2C
S123EC6017009D9D9DB602160041013817009D9D9DB6021600410126A600C7006E811700C3
S123EC8016001700160017009D9D9DB6021600410106A608C7006E81A609C7006E81A601B9
S123ECA0C7006E8117009D9D9DB6021600410106A602C7006E81A603C7006E8117009D9D88
S123ECC09DB602160041011817009D9D9DB6021600410106A604C7006E81A605C7006E81A6
S123ECE017009D9D9DB6021600410106A606C7006E81A607C7006E8117009D160017009DC9
S123ED009D9DB602160041011F17009D9D9DB602160041013217009D9D9DB6021600410158
S123ED2039A600C7006F204C17009D9D9DB602160041012D17009D9D9DB6021600410128FD
S123ED40A604C7006F202D17009D9D9DB602160041011CA602C7006F201AA601C7006F2053
S123ED6013A606C7006F200CA605C7006F2005A603C7006F17009D9D9DB602160041012B60
S123ED8017009D9D9DB602160041015A17009D9D9DB602160041013417009D9D9DB6021629
S123EDA000410121A600C70070207917009D9D9DB6021600410107A608C700702066A60957
S123EDC0C70070205FA601C70070205817009D9D9DB6021600410107A602C700702045A634
S123EDE003C70070203E17009D9D9DB602160041011A17009D9D9DB6021600410107A604B0
S123EE00C70070201FA605C70070201817009D9D9DB6021600410107A606C700702005A6AB
S123EE2007C700708117001600170016001700160017009D9D9DB6021600410107A600C716
S123EE40006B2007A601C7006B200017009D9D9DB602160041012A17009D9D9DB60216003F
S123EE6041015C17009D9D9DB602160041013817009D9D9DB6021600410126A600C7006CBD
S123EE8081170016001700160017009D9D9DB6021600410106A608C7006C81A609C7006C4B
S123EEA081A601C7006C8117009D9D9DB6021600410106A602C7006C81A603C7006C81179E
S123EEC0009D9D9DB602160041011817009D9D9DB6021600410106A604C7006C81A605C75B
S123EEE0006C8117009D9D9DB602160041010BA606C7006CA605C7006C81A607C7006C8179
S123EF0017009D160017009D9D9DB602160041011F17009D9D9DB602160041013217009D22
S123EF209D9DB6021600410139A600C70071204C17009D9D9DB602160041012D17009D9D84
S123EF409DB6021600410128A604C70071202D17009D9D9DB602160041011CA602C70071AF
S123EF60201AA601C700712013A606C70071200CA605C700712005A603C7007117009D9DF7
S123EF809DB602160041012B17009D9D9DB602160041015A17009D9D9DB60216004101340B
S123EFA017009D9D9DB6021600410121A600C70072207917009D9D9DB6021600410107A60B
S123EFC008C700722066A609C70072205FA601C70072205817009D9D9DB6021600410107A2
S123EFE0A602C700722045A603C70072203E17009D9D9DB602160041011A17009D9D9DB6CB
S123F000021600410107A604C70072201FA605C70072201817009D9D9DB602160041010748
S123F020A606C700722005A607C7007281170016001700160017009D9D9DB6021600410103
S123F0401A17009D9D9DB6021600410107A600C70067201FA601C70067201817009D9D9D7F
S123F060B6021600410107A602C700672005A603C7006717009D9D9DB602160041012B1763
S123F080009D9D9DB602160041015A17009D9D9DB602160041013417009D9D9DB60216003D
S123F0A0410121A600C70068207E17009D9D9DB6021600410107A608C70068206BA609C793
S123F0C000682064A601C70068205D17009D9D9DB6021600410107A602C70068204AA603FE
S123F0E0C70068204317009D9D9DB602160041011A17009D9D9DB6021600410107A604C7EC
S123F10000682024A605C70068201D17009D9D9DB602160041010CA606C70068A605C700D1
S123F120682005A607C70068819D9D9D16009D9D9D9D9D9D9D9D17009D9D9D811400160073
S123F1409D9D9D9D9D9D9D9D9D15009D9D9D9D9D9D9D9D9D9D17009D9D9D9D9D811500161B
S123F160009D9D9D14009D9D9D81130011001F021D021B021902CDF2D7CDF7BB1300110073
S123F1801F021D021A021802CDF2D7CDF804130011001F021D021A021802CDF2D7CDF7A3FF
S123F1A0130011001F021D021A021802CDFA05130011001F021D021A021902CDFA0513006B
S123F1C011001F021D021A021902CDFA05130011001E021D021B021902CDFA05130011004C
S123F1E01F021D021B021902CDFA05130011001E021D021B021902CDFA05CDE8DB130011AC
S123F200001F021D021B021902CDFA05130011001F021C021A021902CDFA05130011001FFD
S123F220021D021B021902CDFA05130011001E021C021A021902CDFA0581CDE8DB8113009B
S123F24011001E021C021B021902CDFA051F021D021B021902CDFA0581140114009D9D9D92
S123F2601500CDF1291501811500CDF129CDF129CDF129CDF129CDF129CDF129CDF129CDC4
S123F280F12981110213021502CDE91E81100213021502CDE91E81110212021502CDE91E96
S123F2A081A6F3C7006319031B031D031F0310021202150217021002B60210021602180325
S123F2C01A031C031E0341E30A41D30741B30441730181C7006381110213021402CDE91E99
S123F2E081CDF13CCDE9001500CDF129CDF837CDF268CDF837CDF56BCDF837CDF437CDF8D8
S123F30037CDF3C7CDF837CDF129CDF129CDF129CDF129CDF129CDF129CDF129CDF129CD2A
S123F320F837CDF338CDF837CDF4FFCDF837CDF633CDF837CDF15D811500CDF129CDF12979
S123F340C600694103104102174101201500CDF129CDF12920201400CDF129CDF12920162F
S123F3601400CDF1291500CDF129200A1500CDF1291400CDF129C6006A410927410828411E
S123F380072941062A41052B41042C41032D41022E41012F1500CDF129CDF129CDF129CDFC
S123F3A0F12981CDEA3D81CDE9FE81CDEA5281CDEA6781CDEA1381CDEA2881CDEA9181CD9A
S123F3C0EAA681CDEA7C811500CDF1291500CDF129CDF129C6006D4101071700CDF12920EB
S123F3E0051400CDF129C6006E41092741082841072941062A41052B41042C41032D41027B
S123F4002E41012F1500CDF129CDF129CDF129CDF12981CDEA3D81CDE9FE81CDEA5281CD16
S123F420EA6781CDEA1381CDEA2881CDEA9181CDEAA681CDEA7C811500CDF129C6006F417E
S123F44005194104274103354102434101511500CDF129CDF129CDF12920531400CDF12954
S123F4601500CDF1291400CDF12920421400CDF1291500CDF1291500CDF12920311500CD09
S123F480F1291400CDF1291400CDF12920201500CDF1291400CDF1291500CDF129200F15E1
S123F4A000CDF1291500CDF1291400CDF129C6007041092741082841072941062A41052BFF
S123F4C041042C41032D41022E41012F1500CDF129CDF129CDF129CDF12981CDEA3D81CDF0
S123F4E0E9FE81CDEA5281CDEA6781CDEA1381CDEA2881CDEA9181CDEAA681CDEA7C81155C
S123F50000CDF129CDF129CDF129C6006B410105CDF12920051400CDF129C6006C41092710
S123F52041082841072941062A41052B41042C41032D41022E41012F1500CDF129CDF1295C
S123F540CDF129CDF12981CDEA3D81CDE9FE81CDEA5281CDEA6781CDEA1381CDEA2881CD0D
S123F560EA9181CDEAA681CDEA7C811500CDF129C6007141051941042741033541024341BB
S123F58001511500CDF129CDF129CDF12920531400CDF1291500CDF1291400CDF129204284
S123F5A01400CDF1291500CDF1291500CDF12920311500CDF1291400CDF1291400CDF12911
S123F5C020201500CDF1291400CDF1291500CDF129200F1500CDF1291500CDF1291400CDEC
S123F5E0F129C6007241092741082841072941062A41052B41042C41032D41022E41012FBC
S123F6001500CDF129CDF129CDF129CDF12981CDEA3D81CDE9FE81CDEA5281CDEA6781CD14
S123F620EA1381CDEA2881CDEA9181CDEAA681CDEA7C81C60067410926410823CDF129415C
S123F640073541063241052F41042CCDF129410344410241CDF129410150CDF12920501434
S123F66000CDF1291500CDF129CDF129C60067410938CDF12920381400CDF129C600674165
S123F68007134106101500CDF129C6006741051ACDF129201A1400CDF129C6006741070AD1
S123F6A04103071500CDF12920051400CDF129C6006841092741082841072941062A4105A7
S123F6C02B41042C41032D41022E41012F1500CDF129CDF129CDF129CDF12981CDEA3D8190
S123F6E0CDE9FE81CDEA5281CDEA6781CDEA1381CDEA2881CDEA9181CDEAA681CDEA7C81A2
S123F700CDF2A1CDE9C8CDE925CDE991CDE95B8119021B021D02C6006441000BA600C70019
S123F720641F02CDF28D81A6FFC700641E02CDF28D81CDF73FCDF758CDF771CDF78A81A6ED
S123F74000C7006019021A021C021E02CDF297CDF700A601C7006081A601C7006018021B9D
S123F760021C021E02CDF297CDF700A602C7006081A602C7006018021A021D021E02CDF2D8
S123F78097CDF700A603C7006081A603C7006018021A021C021F02CDF297CDF700A600C7ED
S123F7A0006081A602C70065C60065A001C700652708A6FFA00127F020FA81A6EBC70065B4
S123F7C0C60065A001C700652708A6FFA00127F020FA9D81A619C70065C60065A001C700EB
S123F7E0652708A6FFA00127F020FA81A602C70065C60065A001C700652708A667A00127A9
S123F800F020FA81A641C70065C60065A001C700652708A6FFA00127F020FA811200110004
S123F8201F021C021A021902CDFA051F021D021B021802CDFA058115019D9D9DCDF12914D6
S123F8400181120011001F021D021A021802CDFA051E021D021A021902CDFA0581120011D7
S123F860001F021C021B021902CDFA051F021C021B021902CDFA0581C6006941010B4102BE
S123F8800D41030FCDFD93200DCDFB2A2008CDFCBE2003CDFCA3C6006A41011D41021F4118
S123F8A0032141042341052541062741072941082B41092DCDFD93202BCDFB2A2026CDFCDA
S123F8C0BE2021CDFCA3201CCDF9542017CDF91E2012CDFC37200DCDFC1C2008CDF90320F3
S123F8E003CDFB0FCDF93981120011001F021C021A021902CDFA051F021C021B021802CD02
S123F900FA0581120011001F021D021A021802CDFA051E021D021B021902CDFA0581120028
S123F92011001F021D021A021802CDFA051F021C021B021802CDFA0581120011001F021D4C
S123F940021A021902CDFA051E021C021A021802CDFA0581120011001F021D021A02180244
S123F960CDFA051F021C021B021902CDFA0581120011001F021C021A021902CDFA051E026E
S123F9801D021B021902CDFA0581C6006D410105CDFD932003CDFB2AC6006E41011D4102FD
S123F9A01F41032141042341052541062741072941082B41092DCDFD93202BCDFB2A202642
S123F9C0CDFCBE2021CDFCA3201CCDF9542017CDF91E2012CDFC37200DCDFC1C2008CDF94C
S123F9E0032003CDFB0FCDF84281120011001F021C021A021902CDFA051E021D021B0218A5
S123FA0002CDFA0581CDF2D7CDF7EC81120011001F021C021A021902CDFA051E021C021B0E
S123FA20021802CDFA0581C6006F41011441021641031841011A41021C41031ECDFD93207F
S123FA401CCDFB2A2017CDFCBE2012CDFCA3200DCDF9542008CDF91E2003CDFC37C600708C
S123FA6041011D41021F41032141042341052541062741072941082B41092DCDFD93202B17
S123FA80CDFB2A2026CDFCBE2021CDFCA3201CCDF9542017CDF91E2012CDFC37200DCDFC5D
S123FAA01C2008CDF9032003CDFB0FCDF84281C6006B410105CDFD932003CDFB2AC6006C97
S123FAC041011D41021F41032141042341052541062741072941082B41092DCDFD93202BB7
S123FAE0CDFB2A2026CDFCBE2021CDFCA3201CCDF9542017CDF91E2012CDFC37200DCDFCFD
S123FB001C2008CDF9032003CDFB0FCDF93981120011001F021D021A021802CDFA051E02D5
S123FB201D021B021802CDFA0581120011001F021D021A021802CDFA051F021D021B021844
S123FB4002CDFA0581120011001F021D021A021802CDFA051E021C021A021802CDFA05812C
S123FB60120011001F021C021A021902CDFA051F021D021B021902CDFA0581120011001F15
S123FB80021C021A021802CDFA051F021D021A021802CDFA0581C600714101144102164155
S123FBA0031841011A41021A41031CCDFD93201ACDFB2A2015CDFCBE2010CDFCA3200BCD34
S123FBC0FCA3CDFCBE2003CDFCA3C6007241011D41021F410321410423410525410627418C
S123FBE0072941082B41092DCDFD93202BCDFB2A2026CDFCBE2021CDFCA3201CCDF954205C
S123FC0017CDF91E2012CDFC37200DCDFC1C2008CDF9032003CDFB0FCDF84281120011000B
S123FC201F021D021A021802CDFA051F021C021A021802CDFA0581120011001F021D021A3F
S123FC40021802CDFA051F021C021A021902CDFA0581120011001F021D021A021902CDFA94
S123FC60051F021D021B021902CDFA0581120011001F021C021B021802CDFA051F021C0212
S123FC801B021902CDFA0581120011001F021C021A021802CDFA051F021C021B021902CD33
S123FCA0FA0581120011001F021D021A021802CDFA051F021D021A021802CDFA0581120086
S123FCC011001F021D021A021802CDFA051F021D021A021902CDFA0581120011001F021CA9
S123FCE0021B021802CDFA051F021C021A021802CDFA0581C6006741011C41021ECDFD93F0
S123FD00203F41021641031841011A41021C41031ECDFD93202BCDFB2A2026CDFCBE202106
S123FD20CDFCA3201CCDF9542017CDF91E2012CDFC37200DCDFC1C2008CDF9032003CDFBC2
S123FD400FC6006841011D41021F41032141042341052541062741072941082B41092DCDD2
S123FD60FD93202BCDFB2A2026CDFCBE2021CDFCA3201CCDF9542017CDF91E2012CDFC3795
S123FD80200DCDFC1C2008CDF9032003CDFB0FCDFC5281120011001F021D021A021802CD60
S123FDA0FA051F021D021B021902CDFA0581A653C71802A61CC718094FC7180AC6180CA431
S123FDC0CFC7180CC6FFAF41FF0AC6FFAFB73AC6FFAEB73B6E04386E4039C61841AA1FC79D
S123FDE01841A6FFC71845A60CC718424FC718469A81202D18031A031C031E0318021A0280
S123FE001C021E021000C7006519031B031D031F0319021B021D021F021002120215022013
S107FE20001F4080FB
S104FFBDFF40
S104FFBF7EBF
S123FFD0FFFFFFFFFFFFFFFFFFFFFFFFFFFFFFFFFFFFFFFFFFFFFFFFFFFFFFFFFFFFFFFF2D
S113FFF0FDF2FFFFFFFFFFFFFFFFFFFFFFFFE0003A
S9030000FC
